:100000000C947C000C94A4000C94A4000C94A40008
:100010000C94A4000C94A4000C94A4000C9436023C
:100020000C94A4000C94A4000C94A4000C94A400C0
:100030000C94A4000C94A4000C94A4000C94A400B0
:100040000C94EA020C94A4000C94B8020C94920252
:100050000C94A4000C94A4000C94A4000C94A40090
:100060000C94A4000C94A4005E083B0B73083B0B9B
:100070008D083B0BE7083B0B10093B0B53093B0B6F
:10008000D2093B0B110A3B0B260A3B0B580A3B0BD0
:10009000CC0A3B0B59083B0B54080000000024001D
:1000A00027002A000000000023002600290001028A
:1000B00004081020408001020408102001020408F6
:1000C000102000000000250028002B000404040478
:1000D00004040404020202020202030303030303F2
:1000E00002000000080002010000030407000000F5
:1000F000000000000000400B11241FBECFEFD8E02D
:10010000DEBFCDBF11E0A0E0B1E0E2EDF7E102C05B
:1001100005900D92A431B107D9F722E0A4E1B1E036
:1001200001C01D92A933B207E1F710E0CCE7D0E09F
:1001300004C02197FE010E94C20BCB37D107C9F73B
:100140000E94AE060C94E70B0C940000CF92DF9255
:10015000EF92FF920F931F93CF93DF936C017A017D
:100160008B01C0E0D0E0CE15DF0589F0D8016D919C
:100170008D01D601ED91FC910190F081E02DC60139
:100180000995892B11F47E0102C02196ECCFC7019D
:10019000DF91CF911F910F91FF90EF90DF90CF9063
:1001A0000895089580E090E00895FC01538D448DFA
:1001B000252F30E0842F90E0821B930B541710F012
:1001C000CF96089501970895FC01918D828D98171F
:1001D00061F0828DDF01A80FB11D5D968C91928D2B
:1001E0009F5F9F73928F90E008958FEF9FEF089528
:1001F000FC01918D828D981731F0828DE80FF11DF1
:10020000858D90E008958FEF9FEF0895FC01918D0B
:10021000228D892F90E0805C9F4F821B91098F7304
:10022000992708958CE991E00E94060121E0892B2D
:1002300009F420E0822F0895FC01848DDF01A80FCE
:10024000B11DA35ABF4F2C91848D90E001968F73FE
:100250009927848FA689B7892C93A089B1898C911D
:1002600080648C93938D848D981306C00288F389E3
:10027000E02D80818F7D80830895EF92FF920F9310
:100280001F93CF93DF93EC0181E0888F9B8D8C8D42
:10029000981305C0E889F989808185FD24C0F62E70
:1002A0000B8D10E00F5F1F4F0F731127E02E8C8D09
:1002B000E8120CC00FB607FCFACFE889F9898081F3
:1002C00085FFF5CFCE010E941C01F1CF8B8DFE0181
:1002D000E80FF11DE35AFF4FF0820B8FEA89FB898B
:1002E0008081806207C0EE89FF896083E889F9898F
:1002F00080818064808381E090E0DF91CF911F91C5
:100300000F91FF90EF900895CF93DF93EC01888DCC
:100310008823C9F0EA89FB89808185FD05C0A88909
:10032000B9898C9186FD0FC00FB607FCF5CF80818F
:1003300085FFF2CFA889B9898C9185FFEDCFCE01D9
:100340000E941C01E7CFDF91CF91089580E090E0FB
:10035000892B29F00E94120181110C94000008954C
:10036000833081F028F4813099F08230A1F0089533
:100370008730A9F08830B9F08430D1F480918000C2
:100380008F7D03C0809180008F77809380000895D7
:1003900084B58F7702C084B58F7D84BD0895809128
:1003A000B0008F7703C08091B0008F7D8093B00044
:1003B00008951F93CF93DF93282F30E0F901EF5179
:1003C000FF4F8491F901E255FF4FD491F901E453B5
:1003D000FF4FC491CC23C9F0162F81110E94B001A8
:1003E000EC2FF0E0EE0FFF1FEE53FF4FA591B491FD
:1003F0008FB7F894111105C09C91ED2FE095E9237A
:1004000002C0EC91ED2BEC938FBFDF91CF911F9148
:10041000089590910001981324C0E0EEF0E0E4917B
:100420009FEF90930001E130B9F098F0E230C9F409
:10043000909170009D7F9093700091E09093B00038
:100440009091B100987F94609093B1001092B300A6
:1004500008C010926E0005C090916F009D7F909330
:100460006F0060E00C94D9010E94E20B1F920F9282
:100470000FB60F9211242F933F934F935F936F9377
:100480007F938F939F93AF93BF93EF93FF9380914D
:100490002E0190912F01A0913001B0913101892B53
:1004A0008A2B8B2B51F180912D01E0912B01F09142
:1004B0002C0190818927808380912E0190912F01BA
:1004C000A0913001B0913101181619061A061B06C9
:1004D000C4F480912E0190912F01A0913001B09130
:1004E00031010197A109B10980932E0190932F0149
:1004F000A0933001B093310104C0809100010E94AB
:100500000902FF91EF91BF91AF919F918F917F91E0
:100510006F915F914F913F912F910F900FBE0F9070
:100520001F9018951F920F920FB60F9211242F93C0
:100530003F934F935F936F937F938F939F93AF936B
:10054000BF93EF93FF938CE991E00E941C01FF9110
:10055000EF91BF91AF919F918F917F916F915F913B
:100560004F913F912F910F900FBE0F901F901895B4
:100570001F920F920FB60F9211242F938F939F9378
:10058000EF93FF93E091AC01F091AD018081E09198
:10059000B201F091B30182FD12C090818091B5014A
:1005A0008F5F8F732091B601821751F0E091B501F2
:1005B000F0E0E456FE4F958F8093B50101C0808135
:1005C000FF91EF919F918F912F910F900FBE0F9000
:1005D0001F9018951F920F920FB60F9211242F9310
:1005E0003F938F939F93AF93BF9380911901909105
:1005F0001A01A0911B01B0911C013091180123E058
:10060000230F2D3720F40196A11DB11D05C026E84A
:10061000230F0296A11DB11D20931801809319018B
:1006200090931A01A0931B01B0931C0180911401B7
:1006300090911501A0911601B09117010196A11D8D
:10064000B11D8093140190931501A0931601B093EE
:100650001701BF91AF919F918F913F912F910F9073
:100660000FBE0F901F901895682F8CE991E00C94A5
:100670003D01682F8CE991E00C943D01CF93DF930D
:10068000282F30E0F901EF51FF4F8491F901E25535
:10069000FF4FD491F901E453FF4FC491CC2391F063
:1006A00081110E94B001EC2FF0E0EE0FFF1FEC551E
:1006B000FF4FA591B491EC91ED2381E090E021F4FE
:1006C00080E002C080E090E0DF91CF910895BF927A
:1006D000CF92DF92EF92FF920F931F93CF93DF930E
:1006E000C82ED62EB42EC7E0D0E0022F10E087E04F
:1006F000E82EF12CB11005C0C7018C1B9D0B980191
:1007000002C098018C2F02C0359527958A95E2F793
:10071000B901617077278C2D0E94D90161E08D2D80
:100720000E94D90160E08D2D0E94D901219710F718
:10073000DF91CF911F910F91FF90EF90DF90CF90BD
:10074000BF900895CF93DF9390E0FC01E255FF4FF7
:100750002491FC01E453FF4F8491882361F190E0E0
:10076000880F991FFC01E656FF4FC591D491FC01FB
:10077000EE53FF4FA591B491611109C09FB7F89452
:100780008881209582238883EC912E230BC06230D0
:1007900061F49FB7F8943881822F809583238883F2
:1007A000EC912E2B2C939FBF06C08FB7F894E88155
:1007B0002E2B28838FBFDF91CF9108953F924F92C8
:1007C0005F926F927F928F929F92AF92BF92CF92E1
:1007D000DF92EF92FF920F931F93CF93DF9300D09E
:1007E00000D0CDB7DEB790910001981721F09F3F60
:1007F00009F036C204C0E0EEF0E0349081C080938E
:100800000001E0EEF0E0E491EF3F09F429C2E130AD
:1008100031F1E23009F44BC0E11171C014BC15BCD8
:1008200094B5926094BD95B5916095BDA82FB0E048
:10083000FD01E453FF4FE491F0E0EE0FFF1FEE5394
:10084000FF4F059114911093220100932101FD01A6
:10085000E255FF4FE491E0932001312C53C01092F8
:1008600080001092810090918100986090938100A7
:1008700090918100916090938100A82FB0E0FD01DC
:10088000E453FF4FE491F0E0EE0FFF1FEE53FF4FF4
:100890000591149110931F0100931E01FD01E25573
:1008A000FF4FE491E0931D01332433942BC0109249
:1008B000B0001092B1009091B00092609093B0009F
:1008C0009091B10091609093B100A82FB0E0FD012C
:1008D000E453FF4FE491F0E0EE0FFF1FEE53FF4FA4
:1008E0000591149110932C0100932B01FD01E25509
:1008F000FF4FE491E0932D0102E0302E03C03E2E25
:1009000037FCAEC129013A018B0161E00E94A203CC
:100910004801A12CB12C832D8D7F09F0BBC060E074
:1009200072E18AE790E0A50194010E94A30B29835C
:100930003A834B835C8369017A0121E0C21AD108B2
:10094000E108F1088FEFC816D104E104F10409F0C1
:1009500008F44CC060E472E48FE090E0A5019401DB
:100960000E94A30B69017A01E1E0CE1AD108E108E7
:10097000F108F2E03F1220C02FEFC216D104E104CB
:10098000F10409F008F46AC160E970ED83E090E0D9
:10099000A50194010E94A30B69017A0181E0C81AA4
:1009A000D108E108F108EFEFCE16D104E104F1041B
:1009B00009F0D0F583E067C0FFEFCF16D104E10462
:1009C000F104B1F0A8F068E478EE81E090E0A501D0
:1009D00094010E94A30B69017A0181E0C81AD10831
:1009E000E108F108332009F4DFC02FC181E001C024
:1009F00082E03320A1F047C089819A81AB81BC811C
:100A00002AE0B595A795979587952A95D1F76C011A
:100A10007D0121E0C21AD108E108F10885E095B511
:100A2000987F892B85BD6FC068E478EE81E090E007
:100A3000A50194010E94A30B69017A01F1E0CF1A8C
:100A4000D108E108F1082FEFC216D104E104F10446
:100A500009F008F4A7C064E274EF80E090E0A5011B
:100A600094010E94A30B69017A01E1E0CE1AD1083A
:100A7000E108F108FFEFCF16D104E104F10411F011
:100A800008F0B4C085E09091B100987F892B8093E5
:100A9000B10039C060E072E18AE790E0A5019401FD
:100AA0000E94A30B69017A0181E0C81AD108E1080C
:100AB000F108C114D104E1E0EE06F10488F068E425
:100AC00078EE81E090E0A50194010E94A30B6901FA
:100AD0007A01F1E0CF1AD108E108F10893E001C0F2
:100AE00091E021E032120FC080918100887F892B34
:100AF00080938100411451046104710449F42FEF83
:100B00003FEFA9012DC0411451046104710471F03B
:100B1000D801AA0FBB1FA30192010E94C80B28EEA7
:100B200033E040E050E00E94810B03C02FEF3FEF25
:100B3000A90181E03816A1F0E2E03E1619F131106A
:100B40008FC0C7BC2093270130932801409329010F
:100B500050932A0180916E00826080936E0080C065
:100B6000D0928900C0928800209323013093240101
:100B7000409325015093260180916F0082608093FD
:100B80006F006EC0C092B30020932E0130932F01EE
:100B900040933001509331018091700082608093C6
:100BA00070005EC084E06FCFFFEFCF16D104E10488
:100BB000F104D1F0C8F062E17AE780E090E0A501AD
:100BC00094010E94A30B69017A0181E0C81AD1083F
:100BD000E108F108EFEFCE16D104E104F10411F0C1
:100BE00008F00ACF84E01BCF83E019CF62E17AE7F7
:100BF00080E090E0A50194010E94A30B69017A01B5
:100C000081E0C81AD108E108F108EFEFCE16D1044F
:100C1000E104F104C1F0B8F089819A81AB81BC8113
:100C20004AE0B595A795979587954A95D1F76C01B8
:100C30007D0121E0C21AD108E108F108332009F44E
:100C4000EDCE87E020CF86E0D4CEFFEFCF16D104E3
:100C5000E104F10409F050F684E0CBCE82E013CF3A
:100C60000F900F900F900F90DF91CF911F910F91E8
:100C7000FF90EF90DF90CF90BF90AF909F908F90BC
:100C80007F906F905F904F903F9008956FEE8CE94A
:100C900091E00E943D016FEE8CE991E00E943D01E0
:100CA0006FEE8CE991E00E943D018CE991E00C949B
:100CB0008401CF92DF92EF92FF920F931F93CF9315
:100CC000DF9300D000D0CDB7DEB79FB7F894C090C7
:100CD0001901D0901A01E0901B01F0901C019FBFF8
:100CE000082F10E08CE991E049835A836B837C8361
:100CF0000E94060149815A816B817C81801791078E
:100D0000A4F42FB7F8948091190190911A01A09141
:100D10001B01B0911C012FBF8C199D09AE09BF09A1
:100D200084179507A607B707E8F28CE991E00E94BF
:100D300006018017910724F40E94460680E001C056
:100D400081E00F900F900F900F90DF91CF911F9146
:100D50000F91FF90EF90DF90CF900895789484B535
:100D6000826084BD84B5816084BD85B5826085BDA7
:100D700085B5816085BD80916E00816080936E0035
:100D80001092810080918100826080938100809127
:100D900081008160809381008091800081608093D8
:100DA00080008091B10084608093B1008091B00098
:100DB00081608093B00080917A00846080937A0093
:100DC00080917A00826080937A0080917A008160BD
:100DD00080937A0080917A00806880937A001092E4
:100DE000C100E091AC01F091AD0182E08083E0911F
:100DF000A801F091A9011082E091AA01F091AB0144
:100E000080E180831092B401E091B001F091B101D2
:100E100086E08083E091AE01F091AF018081806136
:100E20008083E091AE01F091AF0180818860808382
:100E3000E091AE01F091AF01808180688083E09104
:100E4000AE01F091AF0180818F7D8083EE24EA9422
:100E5000F12CA2E0CA2EECE5F1E0119241E0EC3970
:100E6000F407D9F78CE991E00E9406010497D0F3CA
:100E70008CE991E00E94E40080935B018F3F09F0D0
:100E8000FCC38CE991E00E94E40080935B018E3FFB
:100E900009F0F3C38CE991E00E94E40080935B01C8
:100EA0008D3F09F0EAC38CE991E00E94E400809351
:100EB0005B018C3F09F0E1C38CEF90E00E943903A5
:100EC0008DEF90E00E9439038EEF90E00E9439038D
:100ED0008FEF90E00E9439038CE991E00E94840139
:100EE0004AEF50E060E070E083E00E9459068823FA
:100EF00009F4C3C38CE991E00E94E4008B3F9105A3
:100F000009F0BBC38CE991E00E94E400C82F8093F4
:100F10005A018CE991E00E94E4008C01982E8093A4
:100F20005901682F8CE991E00E943D016C2F8CE9FA
:100F300091E00E943D016BEF8CE991E00E943D0140
:100F40008CE991E00E94840148EE53E060E070E09B
:100F500084E0800F0E945906882309F48EC3ECE5D3
:100F60006E2EE1E07E2E11275801B3E0AB0EB11CCE
:100F7000C3018C559140A816B90644F08CE991E064
:100F80000E94E400D3018D933D01F2CF0E5F1F4F0D
:100F9000F801E45AFE4FD080D0925801F501E45A8E
:100FA000FE4FD081D093570148EE53E060E070E0EF
:100FB00081E00E945906882309F45FC38CE991E01F
:100FC0000E94E4008A3F910509F057C37CE5A72EF3
:100FD00071E0B72EE0E0F0E020E030E0C5018C5594
:100FE00091408017910790F4D5018D915D01A90181
:100FF000480F511DCA01B7010E946D0B9C018E0F55
:101000009F1FB7010E946D0BFC01E8CFFE2FEE275A
:101010002E2B3F2B3093560120935501F901FF27CA
:10102000F0935401E0935301232F3327309352015F
:1010300020935101C9018E0F9F1FB7010E946D0BB4
:101040009701281B390B3093500120934F01C901A0
:101050008E0F9F1FB7010E946D0BA701481B590BF4
:1010600050934E0140934D018D2D90E02817390784
:1010700009F001C38D2F90E04817590709F0FBC212
:1010800080915C01C813F7C280915D019812F3C290
:101090008C2F90E0FC013197E931F10508F0EBC2AB
:1010A000EC5CFF4F0C94C20BC2E6D1E000E010E014
:1010B0005DC2C0E6D1E000E010E072C069EF8CE9EB
:1010C00091E00E943D0183E090E00E94390362E0DC
:1010D0008CE991E00E943D0181E090E00E943403A0
:1010E00083E090E0E2C180915E01082F10E0109350
:1010F0004C0100934B010E943E03EC0190934A0186
:101100008093490169EF8CE991E00E943D0183E001
:1011100090E00E94390364E023C080915E01082FB3
:1011200010E01093480100934701C0915F01D0E0A7
:10113000D0934A01C0934901209711F460E004C0A4
:10114000C130D10519F461E00E94D90169EF8CE941
:1011500091E00E943D0183E090E00E94390366E047
:101160008CE991E00E943D01C8010E9434039CC1BA
:10117000FE0131978081282F30E030934801209381
:101180004701288130E030934A012093490121151D
:10119000310569F460E00E94D9010F5F1F4F22966C
:1011A00080915E0190E00817190714F305C0213003
:1011B000310599F761E0EFCF69EF8CE991E00E948A
:1011C0003D0181E090E00E94390368E14BC28091CB
:1011D0005E01082F10E01093480100934701C09171
:1011E0005F01D0E0D0934A01C0934901209711F4E8
:1011F00060E009C0C130D10511F462E004C0C23022
:10120000D10519F461E00E94A20369EF8CE991E035
:101210000E943D0183E090E00E94390368E0A0CF86
:1012200080915E01282F30E03093460120934501E4
:101230008E3008F08E5087702091010150E4259F78
:1012400090011124822B80937C0080917A0080642D
:1012500080937A0080917A0086FDFCCFC09178005F
:1012600080917900D0E0D82BD0934401C093430102
:1012700069EF8CE991E00E943D0184E090E00E94DA
:1012800039036AE08CE991E00E943D0180914501BB
:10129000909146010E9434038D2F90E00E94340308
:1012A000CE01992702C110915E01C12FD0E0D093E9
:1012B0004201C093410100915F01A02EB12CB09278
:1012C0004001A0923F0161E0812F0E94A203A1147E
:1012D000B10409F448C08FEFA816B10409F445C061
:1012E000FE01EF51FF4FE491E330F9F048F4E130B3
:1012F000B9F0E230A1F584B5806284BD08BD39C083
:10130000E730E9F0E83019F1E43049F580918000E8
:10131000806280938000B0928B00A0928A0029C0E6
:1013200084B5806884BD07BD24C08091800080683A
:1013300080938000B0928900A09288001AC08091AA
:10134000B00080688093B0000093B30012C0809119
:10135000B00080628093B0000093B4000AC090E8AF
:10136000A916B10414F460E001C061E0812F0E946D
:10137000D90169EF8CE991E00E943D0183E090E0A2
:101380000E9439036CE08CE991E00E943D0180915C
:101390004101909142010E94340380913F0190915C
:1013A000400183C080915E01282F30E030934801D6
:1013B0002093470160915F0170E0762F662790913E
:1013C0006001690F711D70933E0160933D01209192
:1013D000630130E0322F222790916401290F311DE3
:1013E000032E000C440B550B2093390130933A0126
:1013F00040933B0150933C012115310541055105B6
:1014000019F420E030E0A9010E94DE0369EF8CE9C5
:1014100091E00E943D0181E090E00E9439036EE07E
:1014200021C180915E01282F30E030934801209344
:1014300047010E94090269EF8CE991E00E943D0199
:1014400081E090E00E94390360E10CC1C0915E012F
:10145000D0E0D0933801C0933701209711F481E098
:101460000DC0C130D10549F0C230D10519F4C09288
:1014700001010CC0C330D10521F483E08093010148
:1014800005C0C430D10511F41092010169EF8CE957
:1014900091E00E943D0182E090E00E94390362E108
:1014A0008CE991E00E943D01CE010E943403DEC030
:1014B00080915E01A82EB12CB0924801A092470104
:1014C00060915F01062F10E0109336010093350103
:1014D000D0916001D0933401C0916101C093330178
:1014E000D11103C02C2F40E004C0D13021F42C2FA7
:1014F00041E00E94670369EF8CE991E00E943D01A1
:1015000085E090E00E94390364E18CE991E00E945B
:101510003D01C5010E943403C8010E9434036D2FB0
:101520008CE991E00E943D016C2F9CC0FE01339735
:101530008081282F30E030934801209347010F5FCE
:101540001F4F31966081262F30E030933601209373
:101550003501319690819093340128812093330195
:1015600091110BC040E00E946703249680915E01B8
:1015700090E008171907D4F204C09130B1F741E0A8
:10158000F2CF69EF8CE991E00E943D0181E090E0AB
:101590000E9439036AE166C070905E01872C912C2D
:1015A0009092480180924701C0915F01AC2EB12C0E
:1015B000B0923601A0923501D0916001D0933401F0
:1015C000D1111AC000E010E0D12C61E08C2F0E94F4
:1015D000D901872D0E943E03002E01C0880F0A9476
:1015E000EAF7D82A60E08C2F0E94D9010F5F1F4FC5
:1015F0000830110551F719C0D130C9F407E010E0E7
:10160000D12C61E08C2F0E94D901872D0E943E03CE
:10161000002E01C0880F0A94EAF7D82A60E08C2FC8
:101620000E94D9010150110960F7D092320169EF8F
:101630008CE991E00E943D0185E090E00E94390331
:1016400066E18CE991E00E943D01C4010E943403EF
:10165000C5010E9434036D2F8CE991E00E943D0189
:10166000609132018CE991E00E943D018CE991E0AA
:101670000E94840102C00E9446060E94A601EBCB94
:10168000ECE9F1E01382128288EE93E0A0E0B0E092
:1016900084839583A683B78386E091E091838083DA
:1016A00085EC90E09587848784EC90E09787868727
:1016B00080EC90E0918B808B81EC90E0938B828B1F
:1016C00082EC90E0958B848B86EC90E0978B868BF8
:1016D000118E128E138E148E0895AA1BBB1B51E11E
:1016E00007C0AA1FBB1FA617B70710F0A61BB70B92
:1016F000881F991F5A95A9F780959095BC01CD0137
:101700000895A1E21A2EAA1BBB1BFD010DC0AA1F42
:10171000BB1FEE1FFF1FA217B307E407F50720F05A
:10172000A21BB30BE40BF50B661F771F881F991FD5
:101730001A9469F760957095809590959B01AC011E
:10174000BD01CF010895052E97FB1EF400940E9461
:10175000BA0B57FD07D00E94810B07FC03D04EF453
:101760000C94BA0B50954095309521953F4F4F4FB3
:101770005F4F089590958095709561957F4F8F4F3D
:101780009F4F0895EE0FFF1F0590F491E02D0994EF
:101790000E94D30BA59F900DB49F900DA49F800D28
:1017A000911D11240895A29FB001B39FC001A39F72
:1017B000700D811D1124911DB29F700D811D11248A
:1017C000911D089581E090E0F8940C94E70BF89453
:0217D000FFCF49
:1017D200FF01000000003D01A600D50084010601C2
:0417E200E400F80027
:00000001FF
